{
  "contractName": "dashboard",
  "abi": [
    {
      "inputs": [],
      "stateMutability": "nonpayable",
      "type": "constructor"
    },
    {
      "anonymous": false,
      "inputs": [
        {
          "indexed": true,
          "internalType": "address",
          "name": "user",
          "type": "address"
        },
        {
          "indexed": false,
          "internalType": "uint256",
          "name": "newScore",
          "type": "uint256"
        },
        {
          "indexed": false,
          "internalType": "uint256",
          "name": "validatedDocs",
          "type": "uint256"
        }
      ],
      "name": "CreditScoreUpdated",
      "type": "event"
    },
    {
      "anonymous": false,
      "inputs": [
        {
          "indexed": true,
          "internalType": "address",
          "name": "user",
          "type": "address"
        },
        {
          "indexed": true,
          "internalType": "bytes32",
          "name": "docHash",
          "type": "bytes32"
        },
        {
          "indexed": false,
          "internalType": "uint256",
          "name": "docIndex",
          "type": "uint256"
        },
        {
          "indexed": false,
          "internalType": "enum dashboard.DocumentType",
          "name": "docType",
          "type": "uint8"
        },
        {
          "indexed": false,
          "internalType": "uint256",
          "name": "salary",
          "type": "uint256"
        },
        {
          "indexed": false,
          "internalType": "uint256",
          "name": "employmentYears",
          "type": "uint256"
        },
        {
          "indexed": false,
          "internalType": "uint256",
          "name": "repaymentHistoryScore",
          "type": "uint256"
        },
        {
          "indexed": false,
          "internalType": "bool",
          "name": "documentAuthenticity",
          "type": "bool"
        }
      ],
      "name": "DocumentSubmittedWithParams",
      "type": "event"
    },
    {
      "anonymous": false,
      "inputs": [
        {
          "indexed": true,
          "internalType": "address",
          "name": "user",
          "type": "address"
        },
        {
          "indexed": true,
          "internalType": "uint256",
          "name": "docIndex",
          "type": "uint256"
        },
        {
          "indexed": false,
          "internalType": "bytes32",
          "name": "docHash",
          "type": "bytes32"
        }
      ],
      "name": "DocumentValidated",
      "type": "event"
    },
    {
      "inputs": [],
      "name": "MAX_CREDIT_SCORE",
      "outputs": [
        {
          "internalType": "uint256",
          "name": "",
          "type": "uint256"
        }
      ],
      "stateMutability": "view",
      "type": "function",
      "constant": true
    },
    {
      "inputs": [],
      "name": "MAX_REPAYMENT_SCORE",
      "outputs": [
        {
          "internalType": "uint256",
          "name": "",
          "type": "uint256"
        }
      ],
      "stateMutability": "view",
      "type": "function",
      "constant": true
    },
    {
      "inputs": [],
      "name": "MIN_CREDIT_SCORE",
      "outputs": [
        {
          "internalType": "uint256",
          "name": "",
          "type": "uint256"
        }
      ],
      "stateMutability": "view",
      "type": "function",
      "constant": true
    },
    {
      "inputs": [],
      "name": "MIN_REPAYMENT_SCORE",
      "outputs": [
        {
          "internalType": "uint256",
          "name": "",
          "type": "uint256"
        }
      ],
      "stateMutability": "view",
      "type": "function",
      "constant": true
    },
    {
      "inputs": [],
      "name": "MIN_REQUIRED_DOCS",
      "outputs": [
        {
          "internalType": "uint256",
          "name": "",
          "type": "uint256"
        }
      ],
      "stateMutability": "view",
      "type": "function",
      "constant": true
    },
    {
      "inputs": [],
      "name": "owner",
      "outputs": [
        {
          "internalType": "address",
          "name": "",
          "type": "address"
        }
      ],
      "stateMutability": "view",
      "type": "function",
      "constant": true
    },
    {
      "inputs": [],
      "name": "totalUsers",
      "outputs": [
        {
          "internalType": "uint256",
          "name": "",
          "type": "uint256"
        }
      ],
      "stateMutability": "view",
      "type": "function",
      "constant": true
    },
    {
      "inputs": [
        {
          "internalType": "address",
          "name": "",
          "type": "address"
        }
      ],
      "name": "userCredits",
      "outputs": [
        {
          "internalType": "uint256",
          "name": "creditScore",
          "type": "uint256"
        },
        {
          "internalType": "uint256",
          "name": "validatedDocs",
          "type": "uint256"
        },
        {
          "internalType": "bool",
          "name": "isActive",
          "type": "bool"
        }
      ],
      "stateMutability": "view",
      "type": "function",
      "constant": true
    },
    {
      "inputs": [
        {
          "internalType": "address",
          "name": "",
          "type": "address"
        },
        {
          "internalType": "uint256",
          "name": "",
          "type": "uint256"
        }
      ],
      "name": "userDocuments",
      "outputs": [
        {
          "internalType": "bytes32",
          "name": "docHash",
          "type": "bytes32"
        },
        {
          "internalType": "enum dashboard.DocumentType",
          "name": "docType",
          "type": "uint8"
        },
        {
          "internalType": "uint256",
          "name": "salary",
          "type": "uint256"
        },
        {
          "internalType": "uint256",
          "name": "employmentYears",
          "type": "uint256"
        },
        {
          "internalType": "uint256",
          "name": "repaymentHistoryScore",
          "type": "uint256"
        },
        {
          "internalType": "uint256",
          "name": "currentBalance",
          "type": "uint256"
        },
        {
          "internalType": "uint256",
          "name": "lastTotalUtilityBills",
          "type": "uint256"
        },
        {
          "internalType": "bool",
          "name": "documentAuthenticity",
          "type": "bool"
        },
        {
          "internalType": "bool",
          "name": "isValidated",
          "type": "bool"
        },
        {
          "internalType": "uint256",
          "name": "submissionTime",
          "type": "uint256"
        },
        {
          "internalType": "uint256",
          "name": "validationTime",
          "type": "uint256"
        }
      ],
      "stateMutability": "view",
      "type": "function",
      "constant": true
    },
    {
      "inputs": [
        {
          "internalType": "bytes32",
          "name": "_docHash",
          "type": "bytes32"
        },
        {
          "internalType": "uint8",
          "name": "_docType",
          "type": "uint8"
        },
        {
          "internalType": "uint256",
          "name": "_salary",
          "type": "uint256"
        },
        {
          "internalType": "uint256",
          "name": "_employmentYears",
          "type": "uint256"
        },
        {
          "internalType": "uint256",
          "name": "_repaymentHistoryScore",
          "type": "uint256"
        },
        {
          "internalType": "uint256",
          "name": "_currentBalance",
          "type": "uint256"
        },
        {
          "internalType": "uint256",
          "name": "_lastTotalUtilityBills",
          "type": "uint256"
        },
        {
          "internalType": "bool",
          "name": "_documentAuthenticity",
          "type": "bool"
        }
      ],
      "name": "submitDocumentWithParams",
      "outputs": [],
      "stateMutability": "nonpayable",
      "type": "function"
    },
    {
      "inputs": [
        {
          "internalType": "address",
          "name": "user",
          "type": "address"
        },
        {
          "internalType": "uint256",
          "name": "docIndex",
          "type": "uint256"
        }
      ],
      "name": "validateDocument",
      "outputs": [],
      "stateMutability": "nonpayable",
      "type": "function"
    },
    {
      "inputs": [
        {
          "internalType": "address",
          "name": "user",
          "type": "address"
        }
      ],
      "name": "calculateCreditScore",
      "outputs": [],
      "stateMutability": "nonpayable",
      "type": "function"
    },
    {
      "inputs": [
        {
          "internalType": "address",
          "name": "user",
          "type": "address"
        }
      ],
      "name": "getCreditScore",
      "outputs": [
        {
          "internalType": "uint256",
          "name": "",
          "type": "uint256"
        }
      ],
      "stateMutability": "view",
      "type": "function",
      "constant": true
    },
    {
      "inputs": [
        {
          "internalType": "address",
          "name": "user",
          "type": "address"
        }
      ],
      "name": "getUserCredit",
      "outputs": [
        {
          "internalType": "uint256",
          "name": "creditScore",
          "type": "uint256"
        },
        {
          "internalType": "uint256",
          "name": "validatedDocs",
          "type": "uint256"
        },
        {
          "internalType": "bool",
          "name": "isActive",
          "type": "bool"
        }
      ],
      "stateMutability": "view",
      "type": "function",
      "constant": true
    },
    {
      "inputs": [
        {
          "internalType": "address",
          "name": "user",
          "type": "address"
        }
      ],
      "name": "getValidatedDocsCount",
      "outputs": [
        {
          "internalType": "uint256",
          "name": "",
          "type": "uint256"
        }
      ],
      "stateMutability": "view",
      "type": "function",
      "constant": true
    },
    {
      "inputs": [
        {
          "internalType": "address",
          "name": "user",
          "type": "address"
        }
      ],
      "name": "getTotalDocsCount",
      "outputs": [
        {
          "internalType": "uint256",
          "name": "",
          "type": "uint256"
        }
      ],
      "stateMutability": "view",
      "type": "function",
      "constant": true
    },
    {
      "inputs": [
        {
          "internalType": "address",
          "name": "user",
          "type": "address"
        },
        {
          "internalType": "uint256",
          "name": "docIndex",
          "type": "uint256"
        }
      ],
      "name": "getDocumentInfo",
      "outputs": [
        {
          "internalType": "bytes32",
          "name": "docHash",
          "type": "bytes32"
        },
        {
          "internalType": "uint8",
          "name": "docType",
          "type": "uint8"
        },
        {
          "internalType": "bool",
          "name": "isValidated",
          "type": "bool"
        },
        {
          "internalType": "uint256",
          "name": "submissionTime",
          "type": "uint256"
        }
      ],
      "stateMutability": "view",
      "type": "function",
      "constant": true
    },
    {
      "inputs": [
        {
          "internalType": "address",
          "name": "user",
          "type": "address"
        },
        {
          "internalType": "uint256",
          "name": "docIndex",
          "type": "uint256"
        }
      ],
      "name": "getDocumentDetails",
      "outputs": [
        {
          "internalType": "uint256",
          "name": "salary",
          "type": "uint256"
        },
        {
          "internalType": "uint256",
          "name": "employmentYears",
          "type": "uint256"
        },
        {
          "internalType": "uint256",
          "name": "repaymentHistoryScore",
          "type": "uint256"
        },
        {
          "internalType": "uint256",
          "name": "currentBalance",
          "type": "uint256"
        },
        {
          "internalType": "uint256",
          "name": "lastTotalUtilityBills",
          "type": "uint256"
        },
        {
          "internalType": "bool",
          "name": "documentAuthenticity",
          "type": "bool"
        },
        {
          "internalType": "uint256",
          "name": "validationTime",
          "type": "uint256"
        }
      ],
      "stateMutability": "view",
      "type": "function",
      "constant": true
    },
    {
      "inputs": [
        {
          "internalType": "address",
          "name": "user",
          "type": "address"
        }
      ],
      "name": "getUserCreditInfo",
      "outputs": [
        {
          "internalType": "uint256",
          "name": "creditScore",
          "type": "uint256"
        },
        {
          "internalType": "uint256",
          "name": "validatedDocs",
          "type": "uint256"
        },
        {
          "internalType": "uint256",
          "name": "totalDocs",
          "type": "uint256"
        },
        {
          "internalType": "bool",
          "name": "isActive",
          "type": "bool"
        }
      ],
      "stateMutability": "view",
      "type": "function",
      "constant": true
    },
    {
      "inputs": [
        {
          "internalType": "address",
          "name": "user",
          "type": "address"
        }
      ],
      "name": "getUserDocuments",
      "outputs": [
        {
          "internalType": "bytes32[]",
          "name": "docHashes",
          "type": "bytes32[]"
        },
        {
          "internalType": "uint8[]",
          "name": "docTypes",
          "type": "uint8[]"
        },
        {
          "internalType": "bool[]",
          "name": "isValidatedArray",
          "type": "bool[]"
        },
        {
          "internalType": "uint256[]",
          "name": "submissionTimes",
          "type": "uint256[]"
        }
      ],
      "stateMutability": "view",
      "type": "function",
      "constant": true
    },
    {
      "inputs": [
        {
          "internalType": "address",
          "name": "user",
          "type": "address"
        }
      ],
      "name": "getUserDocumentDetails",
      "outputs": [
        {
          "internalType": "uint256[]",
          "name": "salaries",
          "type": "uint256[]"
        },
        {
          "internalType": "uint256[]",
          "name": "employmentYears",
          "type": "uint256[]"
        },
        {
          "internalType": "uint256[]",
          "name": "repaymentHistoryScores",
          "type": "uint256[]"
        },
        {
          "internalType": "uint256[]",
          "name": "currentBalances",
          "type": "uint256[]"
        },
        {
          "internalType": "uint256[]",
          "name": "lastTotalUtilityBills",
          "type": "uint256[]"
        },
        {
          "internalType": "bool[]",
          "name": "documentAuthenticities",
          "type": "bool[]"
        },
        {
          "internalType": "uint256[]",
          "name": "validationTimes",
          "type": "uint256[]"
        }
      ],
      "stateMutability": "view",
      "type": "function",
      "constant": true
    },
    {
      "inputs": [
        {
          "internalType": "address",
          "name": "user",
          "type": "address"
        }
      ],
      "name": "getUserDocumentCount",
      "outputs": [
        {
          "internalType": "uint256",
          "name": "",
          "type": "uint256"
        }
      ],
      "stateMutability": "view",
      "type": "function",
      "constant": true
    },
    {
      "inputs": [],
      "name": "getContractStats",
      "outputs": [
        {
          "internalType": "uint256",
          "name": "users",
          "type": "uint256"
        },
        {
          "internalType": "address",
          "name": "contractOwner",
          "type": "address"
        }
      ],
      "stateMutability": "view",
      "type": "function",
      "constant": true
    },
    {
      "inputs": [],
      "name": "getAllPendingDocuments",
      "outputs": [
        {
          "internalType": "address[]",
          "name": "users",
          "type": "address[]"
        },
        {
          "internalType": "uint256[]",
          "name": "docIndexes",
          "type": "uint256[]"
        },
        {
          "internalType": "bytes32[]",
          "name": "docHashes",
          "type": "bytes32[]"
        },
        {
          "internalType": "uint8[]",
          "name": "docTypes",
          "type": "uint8[]"
        },
        {
          "internalType": "uint256[]",
          "name": "submissionTimes",
          "type": "uint256[]"
        }
      ],
      "stateMutability": "view",
      "type": "function",
      "constant": true
    },
    {
      "inputs": [
        {
          "internalType": "address",
          "name": "user",
          "type": "address"
        }
      ],
      "name": "deactivateUser",
      "outputs": [],
      "stateMutability": "nonpayable",
      "type": "function"
    },
    {
      "inputs": [
        {
          "internalType": "address",
          "name": "user",
          "type": "address"
        }
      ],
      "name": "reactivateUser",
      "outputs": [],
      "stateMutability": "nonpayable",
      "type": "function"
    }
  ],
  "bytecode": "0x608060405234801561001057600080fd5b50336000806101000a81548173ffffffffffffffffffffffffffffffffffffffff021916908373ffffffffffffffffffffffffffffffffffffffff160217905550614bd1806100606000396000f3fe608060405234801561001057600080fd5b506004361061018e5760003560e01c80638da5cb5b116100de578063c73422c411610097578063dad6f0dc11610071578063dad6f0dc146104f5578063dfe6b5d614610527578063edf3479b14610546578063f1c3753a146105795761018e565b8063c73422c41461045c578063d112abeb14610492578063d3dd2bdf146104c55761018e565b80638da5cb5b1461036f57806390a4b1621461038d57806395e4856f146103c0578063b398cb08146103f0578063bff1f9e11461040e578063c450f6db1461042c5761018e565b806354203e091161014b5780636dbe35ee116101255780636dbe35ee146102f757806381a29457146103195780638aaaeba1146103355780638ae1cf73146103535761018e565b806354203e0914610283578063577a1b92146102a1578063593c23b0146102db5761018e565b80630a49cf4d146101935780631a47767b146101b157806320babb92146101cd57806323b60fd9146101ff578063445bd57614610235578063476e67ee14610265575b600080fd5b61019b610595565b6040516101a89190613aac565b60405180910390f35b6101cb60048036038101906101c69190613b2a565b61059b565b005b6101e760048036038101906101e29190613b2a565b610765565b6040516101f693929190613b72565b60405180910390f35b61021960048036038101906102149190613bd5565b61079c565b60405161022c9796959493929190613c15565b60405180910390f35b61024f600480360381019061024a9190613b2a565b610a78565b60405161025c9190613aac565b60405180910390f35b61026d610ba2565b60405161027a9190613aac565b60405180910390f35b61028b610ba7565b6040516102989190613aac565b60405180910390f35b6102bb60048036038101906102b69190613bd5565b610bad565b6040516102d29b9a99989796959493929190613d14565b60405180910390f35b6102f560048036038101906102f09190613bd5565b610c4b565b005b6102ff611004565b6040516103109594939291906140c4565b60405180910390f35b610333600480360381019061032e9190613b2a565b611240565b005b61033d61140a565b60405161034a9190613aac565b60405180910390f35b61036d600480360381019061036891906141be565b61140f565b005b61037761189d565b6040516103849190614283565b60405180910390f35b6103a760048036038101906103a29190613b2a565b6118c1565b6040516103b7949392919061435c565b60405180910390f35b6103da60048036038101906103d59190613b2a565b611ca3565b6040516103e79190613aac565b60405180910390f35b6103f8611cef565b6040516104059190613aac565b60405180910390f35b610416611cf4565b6040516104239190613aac565b60405180910390f35b61044660048036038101906104419190613b2a565b611cfa565b6040516104539190613aac565b60405180910390f35b61047660048036038101906104719190613b2a565b611e24565b60405161048997969594939291906143bd565b60405180910390f35b6104ac60048036038101906104a79190613b2a565b61244f565b6040516104bc949392919061445d565b60405180910390f35b6104df60048036038101906104da9190613b2a565b61265b565b6040516104ec9190613aac565b60405180910390f35b61050f600480360381019061050a9190613b2a565b612785565b60405161051e93929190613b72565b60405180910390f35b61052f61286d565b60405161053d9291906144a2565b60405180910390f35b610560600480360381019061055b9190613bd5565b61289c565b60405161057094939291906144da565b60405180910390f35b610593600480360381019061058e9190613b2a565b612b6e565b005b61025881565b60008054906101000a900473ffffffffffffffffffffffffffffffffffffffff1673ffffffffffffffffffffffffffffffffffffffff163373ffffffffffffffffffffffffffffffffffffffff1614610629576040517f08c379a0000000000000000000000000000000000000000000000000000000008152600401610620906145a2565b60405180910390fd5b80600260008273ffffffffffffffffffffffffffffffffffffffff1673ffffffffffffffffffffffffffffffffffffffff16815260200190815260200160002060020160009054906101000a900460ff16806106c757506000600160008373ffffffffffffffffffffffffffffffffffffffff1673ffffffffffffffffffffffffffffffffffffffff16815260200190815260200160002080549050115b610706576040517f08c379a00000000000000000000000000000000000000000000000000000000081526004016106fd9061460e565b60405180910390fd5b6000600260008473ffffffffffffffffffffffffffffffffffffffff1673ffffffffffffffffffffffffffffffffffffffff16815260200190815260200160002060020160006101000a81548160ff0219169083151502179055505050565b60026020528060005260406000206000915090508060000154908060010154908060020160009054906101000a900460ff16905083565b600080600080600080600088600260008273ffffffffffffffffffffffffffffffffffffffff1673ffffffffffffffffffffffffffffffffffffffff16815260200190815260200160002060020160009054906101000a900460ff168061084557506000600160008373ffffffffffffffffffffffffffffffffffffffff1673ffffffffffffffffffffffffffffffffffffffff16815260200190815260200160002080549050115b610884576040517f08c379a000000000000000000000000000000000000000000000000000000000815260040161087b9061460e565b60405180910390fd5b88600160008c73ffffffffffffffffffffffffffffffffffffffff1673ffffffffffffffffffffffffffffffffffffffff1681526020019081526020016000208054905011610908576040517f08c379a00000000000000000000000000000000000000000000000000000000081526004016108ff9061467a565b60405180910390fd5b6000600160008c73ffffffffffffffffffffffffffffffffffffffff1673ffffffffffffffffffffffffffffffffffffffff1681526020019081526020016000208a8154811061095b5761095a61469a565b5b90600052602060002090600a020160405180610160016040529081600082015481526020016001820160009054906101000a900460ff1660028111156109a4576109a3613c9d565b5b60028111156109b6576109b5613c9d565b5b815260200160028201548152602001600382015481526020016004820154815260200160058201548152602001600682015481526020016007820160009054906101000a900460ff161515151581526020016007820160019054906101000a900460ff161515151581526020016008820154815260200160098201548152505090508060400151816060015182608001518360a001518460c001518560e001518661014001519850985098509850985098509850505092959891949750929550565b600081600260008273ffffffffffffffffffffffffffffffffffffffff1673ffffffffffffffffffffffffffffffffffffffff16815260200190815260200160002060020160009054906101000a900460ff1680610b1857506000600160008373ffffffffffffffffffffffffffffffffffffffff1673ffffffffffffffffffffffffffffffffffffffff16815260200190815260200160002080549050115b610b57576040517f08c379a0000000000000000000000000000000000000000000000000000000008152600401610b4e9061460e565b60405180910390fd5b600160008473ffffffffffffffffffffffffffffffffffffffff1673ffffffffffffffffffffffffffffffffffffffff16815260200190815260200160002080549050915050919050565b600281565b6103e881565b60016020528160005260406000208181548110610bc957600080fd5b90600052602060002090600a0201600091509150508060000154908060010160009054906101000a900460ff16908060020154908060030154908060040154908060050154908060060154908060070160009054906101000a900460ff16908060070160019054906101000a900460ff1690806008015490806009015490508b565b60008054906101000a900473ffffffffffffffffffffffffffffffffffffffff1673ffffffffffffffffffffffffffffffffffffffff163373ffffffffffffffffffffffffffffffffffffffff1614610cd9576040517f08c379a0000000000000000000000000000000000000000000000000000000008152600401610cd0906145a2565b60405180910390fd5b80600160008473ffffffffffffffffffffffffffffffffffffffff1673ffffffffffffffffffffffffffffffffffffffff1681526020019081526020016000208054905011610d5d576040517f08c379a0000000000000000000000000000000000000000000000000000000008152600401610d549061467a565b60405180910390fd5b600160008373ffffffffffffffffffffffffffffffffffffffff1673ffffffffffffffffffffffffffffffffffffffff1681526020019081526020016000208181548110610dae57610dad61469a565b5b90600052602060002090600a020160070160019054906101000a900460ff1615610e0d576040517f08c379a0000000000000000000000000000000000000000000000000000000008152600401610e0490614715565b60405180910390fd5b60018060008473ffffffffffffffffffffffffffffffffffffffff1673ffffffffffffffffffffffffffffffffffffffff1681526020019081526020016000208281548110610e5f57610e5e61469a565b5b90600052602060002090600a020160070160016101000a81548160ff02191690831515021790555042600160008473ffffffffffffffffffffffffffffffffffffffff1673ffffffffffffffffffffffffffffffffffffffff1681526020019081526020016000208281548110610ed957610ed861469a565b5b90600052602060002090600a020160090181905550600260008373ffffffffffffffffffffffffffffffffffffffff1673ffffffffffffffffffffffffffffffffffffffff1681526020019081526020016000206001016000815480929190610f4190614764565b9190505550610f4f82612ce6565b808273ffffffffffffffffffffffffffffffffffffffff167fffe1244cce38e2812b99944bf5cee622e31001a864d920ef312b3af6098458c8600160008673ffffffffffffffffffffffffffffffffffffffff1673ffffffffffffffffffffffffffffffffffffffff1681526020019081526020016000208481548110610fd957610fd861469a565b5b90600052602060002090600a020160000154604051610ff891906147ad565b60405180910390a35050565b606080606080606060008054906101000a900473ffffffffffffffffffffffffffffffffffffffff1673ffffffffffffffffffffffffffffffffffffffff163373ffffffffffffffffffffffffffffffffffffffff161461109a576040517f08c379a0000000000000000000000000000000000000000000000000000000008152600401611091906145a2565b60405180910390fd5b6000805b6003548110156110bb5780806110b390614764565b91505061109e565b50600067ffffffffffffffff8111156110d7576110d66147c8565b5b6040519080825280602002602001820160405280156111055781602001602082028036833780820191505090505b509550600067ffffffffffffffff811115611123576111226147c8565b5b6040519080825280602002602001820160405280156111515781602001602082028036833780820191505090505b509450600067ffffffffffffffff81111561116f5761116e6147c8565b5b60405190808252806020026020018201604052801561119d5781602001602082028036833780820191505090505b509350600067ffffffffffffffff8111156111bb576111ba6147c8565b5b6040519080825280602002602001820160405280156111e95781602001602082028036833780820191505090505b509250600067ffffffffffffffff811115611207576112066147c8565b5b6040519080825280602002602001820160405280156112355781602001602082028036833780820191505090505b509150509091929394565b60008054906101000a900473ffffffffffffffffffffffffffffffffffffffff1673ffffffffffffffffffffffffffffffffffffffff163373ffffffffffffffffffffffffffffffffffffffff16146112ce576040517f08c379a00000000000000000000000000000000000000000000000000000000081526004016112c5906145a2565b60405180910390fd5b80600260008273ffffffffffffffffffffffffffffffffffffffff1673ffffffffffffffffffffffffffffffffffffffff16815260200190815260200160002060020160009054906101000a900460ff168061136c57506000600160008373ffffffffffffffffffffffffffffffffffffffff1673ffffffffffffffffffffffffffffffffffffffff16815260200190815260200160002080549050115b6113ab576040517f08c379a00000000000000000000000000000000000000000000000000000000081526004016113a29061460e565b60405180910390fd5b6001600260008473ffffffffffffffffffffffffffffffffffffffff1673ffffffffffffffffffffffffffffffffffffffff16815260200190815260200160002060020160006101000a81548160ff0219169083151502179055505050565b600081565b8360008110158015611422575060648111155b611461576040517f08c379a000000000000000000000000000000000000000000000000000000000815260040161145890614869565b60405180910390fd5b6000801b8914156114a7576040517f08c379a000000000000000000000000000000000000000000000000000000000815260040161149e906148d5565b60405180910390fd5b600087116114ea576040517f08c379a00000000000000000000000000000000000000000000000000000000081526004016114e190614941565b60405180910390fd5b60028860ff161115611531576040517f08c379a0000000000000000000000000000000000000000000000000000000008152600401611528906149ad565b60405180910390fd5b60008860ff16600281111561154957611548613c9d565b5b905060006040518061016001604052808c815260200183600281111561157257611571613c9d565b5b81526020018a8152602001898152602001888152602001878152602001868152602001851515815260200160001515815260200142815260200160008152509050600160003373ffffffffffffffffffffffffffffffffffffffff1673ffffffffffffffffffffffffffffffffffffffff1681526020019081526020016000208190806001815401808255809150506001900390600052602060002090600a02016000909190919091506000820151816000015560208201518160010160006101000a81548160ff0219169083600281111561165157611650613c9d565b5b021790555060408201518160020155606082015181600301556080820151816004015560a0820151816005015560c0820151816006015560e08201518160070160006101000a81548160ff0219169083151502179055506101008201518160070160016101000a81548160ff021916908315150217905550610120820151816008015561014082015181600901555050600260003373ffffffffffffffffffffffffffffffffffffffff1673ffffffffffffffffffffffffffffffffffffffff16815260200190815260200160002060020160009054906101000a900460ff166117e4576040518060600160405280600081526020016000815260200160011515815250600260003373ffffffffffffffffffffffffffffffffffffffff1673ffffffffffffffffffffffffffffffffffffffff168152602001908152602001600020600082015181600001556020820151816001015560408201518160020160006101000a81548160ff021916908315150217905550905050600360008154809291906117de90614764565b91905055505b600060018060003373ffffffffffffffffffffffffffffffffffffffff1673ffffffffffffffffffffffffffffffffffffffff1681526020019081526020016000208054905061183491906149cd565b90508b3373ffffffffffffffffffffffffffffffffffffffff167f9b0d58ef3f99b1730b627dc73b9addb59c019487a331ff93c67184f4d054737d83868e8e8e8c60405161188796959493929190614a01565b60405180910390a3505050505050505050505050565b60008054906101000a900473ffffffffffffffffffffffffffffffffffffffff1681565b6060806060806000600160008773ffffffffffffffffffffffffffffffffffffffff1673ffffffffffffffffffffffffffffffffffffffff1681526020019081526020016000208054905090508067ffffffffffffffff811115611928576119276147c8565b5b6040519080825280602002602001820160405280156119565781602001602082028036833780820191505090505b5094508067ffffffffffffffff811115611973576119726147c8565b5b6040519080825280602002602001820160405280156119a15781602001602082028036833780820191505090505b5093508067ffffffffffffffff8111156119be576119bd6147c8565b5b6040519080825280602002602001820160405280156119ec5781602001602082028036833780820191505090505b5092508067ffffffffffffffff811115611a0957611a086147c8565b5b604051908082528060200260200182016040528015611a375781602001602082028036833780820191505090505b50915060005b81811015611c9a57600160008873ffffffffffffffffffffffffffffffffffffffff1673ffffffffffffffffffffffffffffffffffffffff1681526020019081526020016000208181548110611a9657611a9561469a565b5b90600052602060002090600a020160000154868281518110611abb57611aba61469a565b5b602002602001018181525050600160008873ffffffffffffffffffffffffffffffffffffffff1673ffffffffffffffffffffffffffffffffffffffff1681526020019081526020016000208181548110611b1857611b1761469a565b5b90600052602060002090600a020160010160009054906101000a900460ff166002811115611b4957611b48613c9d565b5b858281518110611b5c57611b5b61469a565b5b602002602001019060ff16908160ff1681525050600160008873ffffffffffffffffffffffffffffffffffffffff1673ffffffffffffffffffffffffffffffffffffffff1681526020019081526020016000208181548110611bc157611bc061469a565b5b90600052602060002090600a020160070160019054906101000a900460ff16848281518110611bf357611bf261469a565b5b602002602001019015159081151581525050600160008873ffffffffffffffffffffffffffffffffffffffff1673ffffffffffffffffffffffffffffffffffffffff1681526020019081526020016000208181548110611c5657611c5561469a565b5b90600052602060002090600a020160080154838281518110611c7b57611c7a61469a565b5b6020026020010181815250508080611c9290614764565b915050611a3d565b50509193509193565b6000600160008373ffffffffffffffffffffffffffffffffffffffff1673ffffffffffffffffffffffffffffffffffffffff168152602001908152602001600020805490509050919050565b606481565b60035481565b600081600260008273ffffffffffffffffffffffffffffffffffffffff1673ffffffffffffffffffffffffffffffffffffffff16815260200190815260200160002060020160009054906101000a900460ff1680611d9a57506000600160008373ffffffffffffffffffffffffffffffffffffffff1673ffffffffffffffffffffffffffffffffffffffff16815260200190815260200160002080549050115b611dd9576040517f08c379a0000000000000000000000000000000000000000000000000000000008152600401611dd09061460e565b60405180910390fd5b600260008473ffffffffffffffffffffffffffffffffffffffff1673ffffffffffffffffffffffffffffffffffffffff16815260200190815260200160002060010154915050919050565b60608060608060608060606000600160008a73ffffffffffffffffffffffffffffffffffffffff1673ffffffffffffffffffffffffffffffffffffffff1681526020019081526020016000208054905090508067ffffffffffffffff811115611e9057611e8f6147c8565b5b604051908082528060200260200182016040528015611ebe5781602001602082028036833780820191505090505b5097508067ffffffffffffffff811115611edb57611eda6147c8565b5b604051908082528060200260200182016040528015611f095781602001602082028036833780820191505090505b5096508067ffffffffffffffff811115611f2657611f256147c8565b5b604051908082528060200260200182016040528015611f545781602001602082028036833780820191505090505b5095508067ffffffffffffffff811115611f7157611f706147c8565b5b604051908082528060200260200182016040528015611f9f5781602001602082028036833780820191505090505b5094508067ffffffffffffffff811115611fbc57611fbb6147c8565b5b604051908082528060200260200182016040528015611fea5781602001602082028036833780820191505090505b5093508067ffffffffffffffff811115612007576120066147c8565b5b6040519080825280602002602001820160405280156120355781602001602082028036833780820191505090505b5092508067ffffffffffffffff811115612052576120516147c8565b5b6040519080825280602002602001820160405280156120805781602001602082028036833780820191505090505b50915060005b8181101561244257600160008b73ffffffffffffffffffffffffffffffffffffffff1673ffffffffffffffffffffffffffffffffffffffff16815260200190815260200160002081815481106120df576120de61469a565b5b90600052602060002090600a0201600201548982815181106121045761210361469a565b5b602002602001018181525050600160008b73ffffffffffffffffffffffffffffffffffffffff1673ffffffffffffffffffffffffffffffffffffffff16815260200190815260200160002081815481106121615761216061469a565b5b90600052602060002090600a0201600301548882815181106121865761218561469a565b5b602002602001018181525050600160008b73ffffffffffffffffffffffffffffffffffffffff1673ffffffffffffffffffffffffffffffffffffffff16815260200190815260200160002081815481106121e3576121e261469a565b5b90600052602060002090600a0201600401548782815181106122085761220761469a565b5b602002602001018181525050600160008b73ffffffffffffffffffffffffffffffffffffffff1673ffffffffffffffffffffffffffffffffffffffff16815260200190815260200160002081815481106122655761226461469a565b5b90600052602060002090600a02016005015486828151811061228a5761228961469a565b5b602002602001018181525050600160008b73ffffffffffffffffffffffffffffffffffffffff1673ffffffffffffffffffffffffffffffffffffffff16815260200190815260200160002081815481106122e7576122e661469a565b5b90600052602060002090600a02016006015485828151811061230c5761230b61469a565b5b602002602001018181525050600160008b73ffffffffffffffffffffffffffffffffffffffff1673ffffffffffffffffffffffffffffffffffffffff16815260200190815260200160002081815481106123695761236861469a565b5b90600052602060002090600a020160070160009054906101000a900460ff1684828151811061239b5761239a61469a565b5b602002602001019015159081151581525050600160008b73ffffffffffffffffffffffffffffffffffffffff1673ffffffffffffffffffffffffffffffffffffffff16815260200190815260200160002081815481106123fe576123fd61469a565b5b90600052602060002090600a0201600901548382815181106124235761242261469a565b5b602002602001018181525050808061243a90614764565b915050612086565b5050919395979092949650565b60008060008084600260008273ffffffffffffffffffffffffffffffffffffffff1673ffffffffffffffffffffffffffffffffffffffff16815260200190815260200160002060020160009054906101000a900460ff16806124f357506000600160008373ffffffffffffffffffffffffffffffffffffffff1673ffffffffffffffffffffffffffffffffffffffff16815260200190815260200160002080549050115b612532576040517f08c379a00000000000000000000000000000000000000000000000000000000081526004016125299061460e565b60405180910390fd5b600260008773ffffffffffffffffffffffffffffffffffffffff1673ffffffffffffffffffffffffffffffffffffffff16815260200190815260200160002060000154600260008873ffffffffffffffffffffffffffffffffffffffff1673ffffffffffffffffffffffffffffffffffffffff16815260200190815260200160002060010154600160008973ffffffffffffffffffffffffffffffffffffffff1673ffffffffffffffffffffffffffffffffffffffff16815260200190815260200160002080549050600260008a73ffffffffffffffffffffffffffffffffffffffff1673ffffffffffffffffffffffffffffffffffffffff16815260200190815260200160002060020160009054906101000a900460ff169450945094509450509193509193565b600081600260008273ffffffffffffffffffffffffffffffffffffffff1673ffffffffffffffffffffffffffffffffffffffff16815260200190815260200160002060020160009054906101000a900460ff16806126fb57506000600160008373ffffffffffffffffffffffffffffffffffffffff1673ffffffffffffffffffffffffffffffffffffffff16815260200190815260200160002080549050115b61273a576040517f08c379a00000000000000000000000000000000000000000000000000000000081526004016127319061460e565b60405180910390fd5b600260008473ffffffffffffffffffffffffffffffffffffffff1673ffffffffffffffffffffffffffffffffffffffff16815260200190815260200160002060000154915050919050565b6000806000600260008573ffffffffffffffffffffffffffffffffffffffff1673ffffffffffffffffffffffffffffffffffffffff16815260200190815260200160002060000154600260008673ffffffffffffffffffffffffffffffffffffffff1673ffffffffffffffffffffffffffffffffffffffff16815260200190815260200160002060010154600260008773ffffffffffffffffffffffffffffffffffffffff1673ffffffffffffffffffffffffffffffffffffffff16815260200190815260200160002060020160009054906101000a900460ff169250925092509193909250565b60008060035460008054906101000a900473ffffffffffffffffffffffffffffffffffffffff16915091509091565b60008060008085600260008273ffffffffffffffffffffffffffffffffffffffff1673ffffffffffffffffffffffffffffffffffffffff16815260200190815260200160002060020160009054906101000a900460ff168061294057506000600160008373ffffffffffffffffffffffffffffffffffffffff1673ffffffffffffffffffffffffffffffffffffffff16815260200190815260200160002080549050115b61297f576040517f08c379a00000000000000000000000000000000000000000000000000000000081526004016129769061460e565b60405180910390fd5b85600160008973ffffffffffffffffffffffffffffffffffffffff1673ffffffffffffffffffffffffffffffffffffffff1681526020019081526020016000208054905011612a03576040517f08c379a00000000000000000000000000000000000000000000000000000000081526004016129fa9061467a565b60405180910390fd5b6000600160008973ffffffffffffffffffffffffffffffffffffffff1673ffffffffffffffffffffffffffffffffffffffff1681526020019081526020016000208781548110612a5657612a5561469a565b5b90600052602060002090600a020160405180610160016040529081600082015481526020016001820160009054906101000a900460ff166002811115612a9f57612a9e613c9d565b5b6002811115612ab157612ab0613c9d565b5b815260200160028201548152602001600382015481526020016004820154815260200160058201548152602001600682015481526020016007820160009054906101000a900460ff161515151581526020016007820160019054906101000a900460ff16151515158152602001600882015481526020016009820154815250509050806000015181602001516002811115612b4f57612b4e613c9d565b5b8261010001518361012001519550955095509550505092959194509250565b60008054906101000a900473ffffffffffffffffffffffffffffffffffffffff1673ffffffffffffffffffffffffffffffffffffffff163373ffffffffffffffffffffffffffffffffffffffff1614612bfc576040517f08c379a0000000000000000000000000000000000000000000000000000000008152600401612bf3906145a2565b60405180910390fd5b80600260008273ffffffffffffffffffffffffffffffffffffffff1673ffffffffffffffffffffffffffffffffffffffff16815260200190815260200160002060020160009054906101000a900460ff1680612c9a57506000600160008373ffffffffffffffffffffffffffffffffffffffff1673ffffffffffffffffffffffffffffffffffffffff16815260200190815260200160002080549050115b612cd9576040517f08c379a0000000000000000000000000000000000000000000000000000000008152600401612cd09061460e565b60405180910390fd5b612ce282612ce6565b5050565b60008060008060007fffffffffffffffffffffffffffffffffffffffffffffffffffffffffffffffff905060007fffffffffffffffffffffffffffffffffffffffffffffffffffffffffffffffff905060007fffffffffffffffffffffffffffffffffffffffffffffffffffffffffffffffff905060005b600160008a73ffffffffffffffffffffffffffffffffffffffff1673ffffffffffffffffffffffffffffffffffffffff1681526020019081526020016000208054905081101561330557600160008a73ffffffffffffffffffffffffffffffffffffffff1673ffffffffffffffffffffffffffffffffffffffff1681526020019081526020016000208181548110612df957612df861469a565b5b90600052602060002090600a020160070160019054906101000a900460ff16156132f2576000600160008b73ffffffffffffffffffffffffffffffffffffffff1673ffffffffffffffffffffffffffffffffffffffff1681526020019081526020016000208281548110612e7057612e6f61469a565b5b90600052602060002090600a020160405180610160016040529081600082015481526020016001820160009054906101000a900460ff166002811115612eb957612eb8613c9d565b5b6002811115612ecb57612eca613c9d565b5b815260200160028201548152602001600382015481526020016004820154815260200160058201548152602001600682015481526020016007820160009054906101000a900460ff161515151581526020016007820160019054906101000a900460ff1615151515815260200160088201548152602001600982015481525050905060006002811115612f6157612f60613c9d565b5b81602001516002811115612f7857612f77613c9d565b5b141561308157600196507fffffffffffffffffffffffffffffffffffffffffffffffffffffffffffffffff8514806130735750600160008b73ffffffffffffffffffffffffffffffffffffffff1673ffffffffffffffffffffffffffffffffffffffff1681526020019081526020016000208581548110612ffc57612ffb61469a565b5b90600052602060002090600a020160090154600160008c73ffffffffffffffffffffffffffffffffffffffff1673ffffffffffffffffffffffffffffffffffffffff168152602001908152602001600020838154811061305f5761305e61469a565b5b90600052602060002090600a020160090154115b1561307c578194505b6132e2565b6001600281111561309557613094613c9d565b5b816020015160028111156130ac576130ab613c9d565b5b14156131b557600195507fffffffffffffffffffffffffffffffffffffffffffffffffffffffffffffffff8414806131a75750600160008b73ffffffffffffffffffffffffffffffffffffffff1673ffffffffffffffffffffffffffffffffffffffff16815260200190815260200160002084815481106131305761312f61469a565b5b90600052602060002090600a020160090154600160008c73ffffffffffffffffffffffffffffffffffffffff1673ffffffffffffffffffffffffffffffffffffffff16815260200190815260200160002083815481106131935761319261469a565b5b90600052602060002090600a020160090154115b156131b0578193505b6132e1565b6002808111156131c8576131c7613c9d565b5b816020015160028111156131df576131de613c9d565b5b14156132e0577fffffffffffffffffffffffffffffffffffffffffffffffffffffffffffffffff8314806132d65750600160008b73ffffffffffffffffffffffffffffffffffffffff1673ffffffffffffffffffffffffffffffffffffffff168152602001908152602001600020838154811061325f5761325e61469a565b5b90600052602060002090600a020160090154600160008c73ffffffffffffffffffffffffffffffffffffffff1673ffffffffffffffffffffffffffffffffffffffff16815260200190815260200160002083815481106132c2576132c161469a565b5b90600052602060002090600a020160090154115b156132df578192505b5b5b5b87806132ed90614764565b985050505b80806132fd90614764565b915050612d5e565b507fffffffffffffffffffffffffffffffffffffffffffffffffffffffffffffffff83146134ba576000600160008a73ffffffffffffffffffffffffffffffffffffffff1673ffffffffffffffffffffffffffffffffffffffff16815260200190815260200160002084815481106133805761337f61469a565b5b90600052602060002090600a020160405180610160016040529081600082015481526020016001820160009054906101000a900460ff1660028111156133c9576133c8613c9d565b5b60028111156133db576133da613c9d565b5b815260200160028201548152602001600382015481526020016004820154815260200160058201548152602001600682015481526020016007820160009054906101000a900460ff161515151581526020016007820160019054906101000a900460ff1615151515815260200160088201548152602001600982015481525050905060008160e0015161346f576000613472565b60645b60ff169050600082608001519050600061348f8460a001516139b9565b905080828461349e9190614a62565b6134a89190614a62565b8b6134b39190614a62565b9a50505050505b7fffffffffffffffffffffffffffffffffffffffffffffffffffffffffffffffff8214613659576000600160008a73ffffffffffffffffffffffffffffffffffffffff1673ffffffffffffffffffffffffffffffffffffffff16815260200190815260200160002083815481106135345761353361469a565b5b90600052602060002090600a020160405180610160016040529081600082015481526020016001820160009054906101000a900460ff16600281111561357d5761357c613c9d565b5b600281111561358f5761358e613c9d565b5b815260200160028201548152602001600382015481526020016004820154815260200160058201548152602001600682015481526020016007820160009054906101000a900460ff161515151581526020016007820160019054906101000a900460ff1615151515815260200160088201548152602001600982015481525050905060008160e00151613623576000613626565b60645b60ff169050600061363a8360c001516139f1565b905080826136489190614a62565b8a6136539190614a62565b99505050505b7fffffffffffffffffffffffffffffffffffffffffffffffffffffffffffffffff8114613815576000600160008a73ffffffffffffffffffffffffffffffffffffffff1673ffffffffffffffffffffffffffffffffffffffff16815260200190815260200160002082815481106136d3576136d261469a565b5b90600052602060002090600a020160405180610160016040529081600082015481526020016001820160009054906101000a900460ff16600281111561371c5761371b613c9d565b5b600281111561372e5761372d613c9d565b5b815260200160028201548152602001600382015481526020016004820154815260200160058201548152602001600682015481526020016007820160009054906101000a900460ff161515151581526020016007820160019054906101000a900460ff1615151515815260200160088201548152602001600982015481525050905060008160e001516137c25760006137c5565b60645b60ff16905060006137d98360400151613a27565b905060006137ea8460600151613a5f565b90508082846137f99190614a62565b6138039190614a62565b8b61380e9190614a62565b9a50505050505b84801561381f5750835b801561382c575060028610155b1561388d576103e8871115613841576103e896505b86600260008a73ffffffffffffffffffffffffffffffffffffffff1673ffffffffffffffffffffffffffffffffffffffff168152602001908152602001600020600001819055506138d6565b6000600260008a73ffffffffffffffffffffffffffffffffffffffff1673ffffffffffffffffffffffffffffffffffffffff168152602001908152602001600020600001819055505b85600260008a73ffffffffffffffffffffffffffffffffffffffff1673ffffffffffffffffffffffffffffffffffffffff168152602001908152602001600020600101819055508773ffffffffffffffffffffffffffffffffffffffff167f4f43648f37bc26ee5bc39c60c1c1e2481a9fb9feb9f86419c91b4645585ff3bc600260008b73ffffffffffffffffffffffffffffffffffffffff1673ffffffffffffffffffffffffffffffffffffffff16815260200190815260200160002060000154886040516139a7929190614ab8565b60405180910390a25050505050505050565b6000620186a082106139ce57606490506139ec565b620186a06064836139df9190614ae1565b6139e99190614b6a565b90505b919050565b60006107d08210613a055760649050613a22565b6107d0606483613a159190614ae1565b613a1f9190614b6a565b90505b919050565b6000620186a08210613a3c5760649050613a5a565b620186a0606483613a4d9190614ae1565b613a579190614b6a565b90505b919050565b6000600a8210613a725760649050613a8e565b600a606483613a819190614ae1565b613a8b9190614b6a565b90505b919050565b6000819050919050565b613aa681613a93565b82525050565b6000602082019050613ac16000830184613a9d565b92915050565b600080fd5b600073ffffffffffffffffffffffffffffffffffffffff82169050919050565b6000613af782613acc565b9050919050565b613b0781613aec565b8114613b1257600080fd5b50565b600081359050613b2481613afe565b92915050565b600060208284031215613b4057613b3f613ac7565b5b6000613b4e84828501613b15565b91505092915050565b60008115159050919050565b613b6c81613b57565b82525050565b6000606082019050613b876000830186613a9d565b613b946020830185613a9d565b613ba16040830184613b63565b949350505050565b613bb281613a93565b8114613bbd57600080fd5b50565b600081359050613bcf81613ba9565b92915050565b60008060408385031215613bec57613beb613ac7565b5b6000613bfa85828601613b15565b9250506020613c0b85828601613bc0565b9150509250929050565b600060e082019050613c2a600083018a613a9d565b613c376020830189613a9d565b613c446040830188613a9d565b613c516060830187613a9d565b613c5e6080830186613a9d565b613c6b60a0830185613b63565b613c7860c0830184613a9d565b98975050505050505050565b6000819050919050565b613c9781613c84565b82525050565b7f4e487b7100000000000000000000000000000000000000000000000000000000600052602160045260246000fd5b60038110613cdd57613cdc613c9d565b5b50565b6000819050613cee82613ccc565b919050565b6000613cfe82613ce0565b9050919050565b613d0e81613cf3565b82525050565b600061016082019050613d2a600083018e613c8e565b613d37602083018d613d05565b613d44604083018c613a9d565b613d51606083018b613a9d565b613d5e608083018a613a9d565b613d6b60a0830189613a9d565b613d7860c0830188613a9d565b613d8560e0830187613b63565b613d93610100830186613b63565b613da1610120830185613a9d565b613daf610140830184613a9d565b9c9b505050505050505050505050565b600081519050919050565b600082825260208201905092915050565b6000819050602082019050919050565b613df481613aec565b82525050565b6000613e068383613deb565b60208301905092915050565b6000602082019050919050565b6000613e2a82613dbf565b613e348185613dca565b9350613e3f83613ddb565b8060005b83811015613e70578151613e578882613dfa565b9750613e6283613e12565b925050600181019050613e43565b5085935050505092915050565b600081519050919050565b600082825260208201905092915050565b6000819050602082019050919050565b613eb281613a93565b82525050565b6000613ec48383613ea9565b60208301905092915050565b6000602082019050919050565b6000613ee882613e7d565b613ef28185613e88565b9350613efd83613e99565b8060005b83811015613f2e578151613f158882613eb8565b9750613f2083613ed0565b925050600181019050613f01565b5085935050505092915050565b600081519050919050565b600082825260208201905092915050565b6000819050602082019050919050565b613f7081613c84565b82525050565b6000613f828383613f67565b60208301905092915050565b6000602082019050919050565b6000613fa682613f3b565b613fb08185613f46565b9350613fbb83613f57565b8060005b83811015613fec578151613fd38882613f76565b9750613fde83613f8e565b925050600181019050613fbf565b5085935050505092915050565b600081519050919050565b600082825260208201905092915050565b6000819050602082019050919050565b600060ff82169050919050565b61403b81614025565b82525050565b600061404d8383614032565b60208301905092915050565b6000602082019050919050565b600061407182613ff9565b61407b8185614004565b935061408683614015565b8060005b838110156140b757815161409e8882614041565b97506140a983614059565b92505060018101905061408a565b5085935050505092915050565b600060a08201905081810360008301526140de8188613e1f565b905081810360208301526140f28187613edd565b905081810360408301526141068186613f9b565b9050818103606083015261411a8185614066565b9050818103608083015261412e8184613edd565b90509695505050505050565b61414381613c84565b811461414e57600080fd5b50565b6000813590506141608161413a565b92915050565b61416f81614025565b811461417a57600080fd5b50565b60008135905061418c81614166565b92915050565b61419b81613b57565b81146141a657600080fd5b50565b6000813590506141b881614192565b92915050565b600080600080600080600080610100898b0312156141df576141de613ac7565b5b60006141ed8b828c01614151565b98505060206141fe8b828c0161417d565b975050604061420f8b828c01613bc0565b96505060606142208b828c01613bc0565b95505060806142318b828c01613bc0565b94505060a06142428b828c01613bc0565b93505060c06142538b828c01613bc0565b92505060e06142648b828c016141a9565b9150509295985092959890939650565b61427d81613aec565b82525050565b60006020820190506142986000830184614274565b92915050565b600081519050919050565b600082825260208201905092915050565b6000819050602082019050919050565b6142d381613b57565b82525050565b60006142e583836142ca565b60208301905092915050565b6000602082019050919050565b60006143098261429e565b61431381856142a9565b935061431e836142ba565b8060005b8381101561434f57815161433688826142d9565b9750614341836142f1565b925050600181019050614322565b5085935050505092915050565b600060808201905081810360008301526143768187613f9b565b9050818103602083015261438a8186614066565b9050818103604083015261439e81856142fe565b905081810360608301526143b28184613edd565b905095945050505050565b600060e08201905081810360008301526143d7818a613edd565b905081810360208301526143eb8189613edd565b905081810360408301526143ff8188613edd565b905081810360608301526144138187613edd565b905081810360808301526144278186613edd565b905081810360a083015261443b81856142fe565b905081810360c083015261444f8184613edd565b905098975050505050505050565b60006080820190506144726000830187613a9d565b61447f6020830186613a9d565b61448c6040830185613a9d565b6144996060830184613b63565b95945050505050565b60006040820190506144b76000830185613a9d565b6144c46020830184614274565b9392505050565b6144d481614025565b82525050565b60006080820190506144ef6000830187613c8e565b6144fc60208301866144cb565b6145096040830185613b63565b6145166060830184613a9d565b95945050505050565b600082825260208201905092915050565b7f4f6e6c79206f776e65722063616e2063616c6c20746869732066756e6374696f60008201527f6e00000000000000000000000000000000000000000000000000000000000000602082015250565b600061458c60218361451f565b915061459782614530565b604082019050919050565b600060208201905081810360008301526145bb8161457f565b9050919050565b7f55736572206e6f7420666f756e64000000000000000000000000000000000000600082015250565b60006145f8600e8361451f565b9150614603826145c2565b602082019050919050565b60006020820190508181036000830152614627816145eb565b9050919050565b7f446f63756d656e7420696e646578206f7574206f6620626f756e647300000000600082015250565b6000614664601c8361451f565b915061466f8261462e565b602082019050919050565b6000602082019050818103600083015261469381614657565b9050919050565b7f4e487b7100000000000000000000000000000000000000000000000000000000600052603260045260246000fd5b7f446f63756d656e7420616c72656164792076616c696461746564000000000000600082015250565b60006146ff601a8361451f565b915061470a826146c9565b602082019050919050565b6000602082019050818103600083015261472e816146f2565b9050919050565b7f4e487b7100000000000000000000000000000000000000000000000000000000600052601160045260246000fd5b600061476f82613a93565b91507fffffffffffffffffffffffffffffffffffffffffffffffffffffffffffffffff8214156147a2576147a1614735565b5b600182019050919050565b60006020820190506147c26000830184613c8e565b92915050565b7f4e487b7100000000000000000000000000000000000000000000000000000000600052604160045260246000fd5b7f52657061796d656e742073636f7265206d757374206265206265747765656e2060008201527f302d313030000000000000000000000000000000000000000000000000000000602082015250565b600061485360258361451f565b915061485e826147f7565b604082019050919050565b6000602082019050818103600083015261488281614846565b9050919050565b7f446f63756d656e7420686173682063616e6e6f7420626520656d707479000000600082015250565b60006148bf601d8361451f565b91506148ca82614889565b602082019050919050565b600060208201905081810360008301526148ee816148b2565b9050919050565b7f53616c617279206d7573742062652067726561746572207468616e2030000000600082015250565b600061492b601d8361451f565b9150614936826148f5565b602082019050919050565b6000602082019050818103600083015261495a8161491e565b9050919050565b7f496e76616c696420646f63756d656e7420747970650000000000000000000000600082015250565b600061499760158361451f565b91506149a282614961565b602082019050919050565b600060208201905081810360008301526149c68161498a565b9050919050565b60006149d882613a93565b91506149e383613a93565b9250828210156149f6576149f5614735565b5b828203905092915050565b600060c082019050614a166000830189613a9d565b614a236020830188613d05565b614a306040830187613a9d565b614a3d6060830186613a9d565b614a4a6080830185613a9d565b614a5760a0830184613b63565b979650505050505050565b6000614a6d82613a93565b9150614a7883613a93565b9250827fffffffffffffffffffffffffffffffffffffffffffffffffffffffffffffffff03821115614aad57614aac614735565b5b828201905092915050565b6000604082019050614acd6000830185613a9d565b614ada6020830184613a9d565b9392505050565b6000614aec82613a93565b9150614af783613a93565b9250817fffffffffffffffffffffffffffffffffffffffffffffffffffffffffffffffff0483118215151615614b3057614b2f614735565b5b828202905092915050565b7f4e487b7100000000000000000000000000000000000000000000000000000000600052601260045260246000fd5b6000614b7582613a93565b9150614b8083613a93565b925082614b9057614b8f614b3b565b5b82820490509291505056fea26469706673582212205954d9dcc460e6491878137e00377e8dcc3ec49cf0c7fc3514eb1c83d613758664736f6c634300080a0033",
  "immutableReferences": {},
  "source": "// SPDX-License-Identifier: MIT\npragma solidity ^0.8.10;\n\n/**\n * @title Parameterized Document Validation Credit Scoring System\n * @dev A credit scoring system based on document validation with weighted parameters\n * @notice Users submit documents with parameters, validator approves them, credit score calculated using weighted formula\n */\ncontract dashboard {\n    \n    // ============ STRUCTS ============\n    \n    /**\n     * @dev Structure to store document information with credit scoring parameters\n     */\n    struct Document {\n        bytes32 docHash;                    // Hash of the submitted document\n        DocumentType docType;               // Type of document (bank statement, utility bill, salary slip)\n        uint256 salary;                     // User's salary/income amount\n        uint256 employmentYears;            // Years of employment\n        uint256 repaymentHistoryScore;      // Repayment history score (0-100)\n        uint256 currentBalance;             // Current bank balance (for bank statements)\n        uint256 lastTotalUtilityBills;      // Last total utility bills amount (for utility bills)\n        bool documentAuthenticity;          // Whether document is verified/authentic\n        bool isValidated;                   // Whether the document has been validated by owner\n        uint256 submissionTime;             // When the document was submitted\n        uint256 validationTime;             // When the document was validated (0 if not validated)\n    }\n    \n    /**\n     * @dev Structure to store user credit information\n     */\n    struct UserCredit {\n        uint256 creditScore;                // Credit score based on validated documents and parameters\n        uint256 validatedDocs;              // Number of validated documents\n        bool isActive;                      // Whether the user account is active\n    }\n    \n    // ============ STATE VARIABLES ============\n    \n    address public owner; // The validator/admin who can approve documents\n    \n    // Mapping from user address to their documents array\n    mapping(address => Document[]) public userDocuments;\n    \n    // Mapping from user address to their credit information\n    mapping(address => UserCredit) public userCredits;\n    \n    // Track total users in the system\n    uint256 public totalUsers;\n    \n    // ============ ENUMS ============\n    \n    enum DocumentType {\n        BANK_STATEMENT,    // Required document\n        UTILITY_BILL,      // Required document\n        SALARY_SLIP        // Optional document\n    }\n    \n    // ============ CONSTANTS ============\n    \n    uint256 public constant MAX_REPAYMENT_SCORE = 100; // Maximum repayment history score\n    uint256 public constant MIN_REPAYMENT_SCORE = 0;   // Minimum repayment history score\n    uint256 public constant MAX_CREDIT_SCORE = 1000;   // Maximum credit score\n    uint256 public constant MIN_CREDIT_SCORE = 600;    // Minimum credit score\n    uint256 public constant MIN_REQUIRED_DOCS = 2;     // Minimum required documents (bank statement + utility bill)\n    \n    // ============ EVENTS ============\n    \n    /**\n     * @dev Emitted when a user submits a document with parameters\n     */\n    event DocumentSubmittedWithParams(\n        address indexed user, \n        bytes32 indexed docHash, \n        uint256 docIndex,\n        DocumentType docType,\n        uint256 salary,\n        uint256 employmentYears,\n        uint256 repaymentHistoryScore,\n        bool documentAuthenticity\n    );\n    \n    /**\n     * @dev Emitted when the owner validates a document\n     */\n    event DocumentValidated(address indexed user, uint256 indexed docIndex, bytes32 docHash);\n    \n    /**\n     * @dev Emitted when a user's credit score is updated\n     */\n    event CreditScoreUpdated(address indexed user, uint256 newScore, uint256 validatedDocs);\n    \n    // ============ MODIFIERS ============\n    \n    /**\n     * @dev Modifier to ensure only the owner can call certain functions\n     */\n    modifier onlyOwner() {\n        require(msg.sender == owner, \"Only owner can call this function\");\n        _;\n    }\n    \n    /**\n     * @dev Modifier to ensure user exists in the system\n     */\n    modifier userExists(address user) {\n        require(userCredits[user].isActive || userDocuments[user].length > 0, \"User not found\");\n        _;\n    }\n    \n    /**\n     * @dev Modifier to validate repayment history score range\n     */\n    modifier validRepaymentScore(uint256 score) {\n        require(score >= MIN_REPAYMENT_SCORE && score <= MAX_REPAYMENT_SCORE, \"Repayment score must be between 0-100\");\n        _;\n    }\n    \n    /**\n     * @dev Modifier to validate credit score range\n     */\n    modifier validCreditScore(uint256 score) {\n        require(score >= MIN_CREDIT_SCORE && score <= MAX_CREDIT_SCORE, \"Credit score must be between 600-1000\");\n        _;\n    }\n    \n    // ============ CONSTRUCTOR ============\n    \n    /**\n     * @dev Initialize the contract with the deployer as owner\n     */\n    constructor() {\n        owner = msg.sender;\n    }\n    \n    // ============ CORE FUNCTIONS ============\n    \n    /**\n     * @dev Submit a document hash with credit scoring parameters\n     * @param _docHash The hash of the document to be submitted\n     * @param _docType Type of document (0=bank statement, 1=utility bill, 2=salary slip)\n     * @param _salary User's salary/income amount\n     * @param _employmentYears Years of employment\n     * @param _repaymentHistoryScore Repayment history score (0-100)\n     * @param _currentBalance Current bank balance (for bank statements)\n     * @param _lastTotalUtilityBills Last total utility bills amount (for utility bills)\n     * @param _documentAuthenticity Whether the document is verified/authentic\n     * @notice Users must submit at least 2 documents: bank statement + utility bill. Salary slips are optional.\n     */\n    function submitDocumentWithParams(\n        bytes32 _docHash,\n        uint8 _docType,\n        uint256 _salary,\n        uint256 _employmentYears,\n        uint256 _repaymentHistoryScore,\n        uint256 _currentBalance,\n        uint256 _lastTotalUtilityBills,\n        bool _documentAuthenticity\n    ) external validRepaymentScore(_repaymentHistoryScore) {\n        require(_docHash != bytes32(0), \"Document hash cannot be empty\");\n        require(_salary > 0, \"Salary must be greater than 0\");\n        require(_docType <= 2, \"Invalid document type\");\n        \n        DocumentType docTypeEnum = DocumentType(_docType);\n        \n        // Create new document entry with parameters\n        Document memory newDoc = Document({\n            docHash: _docHash,\n            docType: docTypeEnum,\n            salary: _salary,\n            employmentYears: _employmentYears,\n            repaymentHistoryScore: _repaymentHistoryScore,\n            currentBalance: _currentBalance,\n            lastTotalUtilityBills: _lastTotalUtilityBills,\n            documentAuthenticity: _documentAuthenticity,\n            isValidated: false,\n            submissionTime: block.timestamp,\n            validationTime: 0\n        });\n        \n        // Add document to user's documents array\n        userDocuments[msg.sender].push(newDoc);\n        \n        // If this is the user's first document, initialize their credit record\n        if (!userCredits[msg.sender].isActive) {\n            userCredits[msg.sender] = UserCredit({\n                creditScore: 0,\n                validatedDocs: 0,\n                isActive: true\n            });\n        totalUsers++;\n        }\n        \n        uint256 docIndex = userDocuments[msg.sender].length - 1;\n        emit DocumentSubmittedWithParams(\n            msg.sender, \n            _docHash, \n            docIndex,\n            docTypeEnum,\n            _salary,\n            _employmentYears,\n            _repaymentHistoryScore,\n            _documentAuthenticity\n        );\n    }\n    \n    /**\n     * @dev Validate a document for a specific user (only owner)\n     * @param user The address of the user whose document to validate\n     * @param docIndex The index of the document to validate in the user's documents array\n     * @notice Only the owner/validator can call this function to approve documents\n     */\n    function validateDocument(address user, uint256 docIndex) external onlyOwner {\n        require(userDocuments[user].length > docIndex, \"Document index out of bounds\");\n        require(!userDocuments[user][docIndex].isValidated, \"Document already validated\");\n        \n        // Mark document as validated\n        userDocuments[user][docIndex].isValidated = true;\n        userDocuments[user][docIndex].validationTime = block.timestamp;\n        \n        // Update user's validated document count\n        userCredits[user].validatedDocs++;\n        \n        // Recalculate credit score based on all validated documents\n        _calculateCreditScore(user);\n        \n        emit DocumentValidated(user, docIndex, userDocuments[user][docIndex].docHash);\n    }\n    \n    /**\n     * @dev Calculate and update credit score for a user (only owner)\n     * @param user The address of the user whose credit score to calculate\n     * @notice Credit score calculated using weighted formula based on validated documents\n     * @notice Final score is capped between 600-1000\n     */\n    function calculateCreditScore(address user) external onlyOwner userExists(user) {\n        _calculateCreditScore(user);\n    }\n    \n    /**\n     * @dev Internal function to calculate credit score using document-specific formula\n     * @param user The address of the user whose credit score to calculate\n     * @notice Document-specific scoring with percentage-based calculations:\n     * @notice - Bank Statement: authenticity (100 fixed) + repaymentHistory% + currentBalance%\n     * @notice - Utility Bill: lastTotalUtilityBills% + authenticity (100 fixed)\n     * @notice - Salary Slip: income% + employmentYears% + authenticity (100 fixed)\n     * @notice Only the LATEST validated document of each type is used in the calculation\n     * @notice This prevents duplicate documents from adding to the score\n     * @notice Credit score is the SUM of latest validated documents, capped at maximum 1000\n     * @notice User must have at least 2 validated documents (bank statement + utility bill)\n     */\n    function _calculateCreditScore(address user) internal {\n        uint256 totalScore = 0;\n        uint256 validatedCount = 0;\n        bool hasBankStatement = false;\n        bool hasUtilityBill = false;\n        \n        // Track the latest validated document of each type (by index)\n        uint256 latestBankStatement = type(uint256).max; // Use max as \"not found\" marker\n        uint256 latestUtilityBill = type(uint256).max;\n        uint256 latestSalarySlip = type(uint256).max;\n        \n        // First pass: Find the latest validated document of each type\n        for (uint256 i = 0; i < userDocuments[user].length; i++) {\n            if (userDocuments[user][i].isValidated) {\n                Document memory doc = userDocuments[user][i];\n                \n                if (doc.docType == DocumentType.BANK_STATEMENT) {\n                    hasBankStatement = true;\n                    // Keep track of the latest (highest index) validated bank statement\n                    if (latestBankStatement == type(uint256).max || \n                        userDocuments[user][i].validationTime > userDocuments[user][latestBankStatement].validationTime) {\n                        latestBankStatement = i;\n                    }\n                } else if (doc.docType == DocumentType.UTILITY_BILL) {\n                    hasUtilityBill = true;\n                    // Keep track of the latest (highest index) validated utility bill\n                    if (latestUtilityBill == type(uint256).max || \n                        userDocuments[user][i].validationTime > userDocuments[user][latestUtilityBill].validationTime) {\n                        latestUtilityBill = i;\n                    }\n                } else if (doc.docType == DocumentType.SALARY_SLIP) {\n                    // Keep track of the latest (highest index) validated salary slip\n                    if (latestSalarySlip == type(uint256).max || \n                        userDocuments[user][i].validationTime > userDocuments[user][latestSalarySlip].validationTime) {\n                        latestSalarySlip = i;\n                    }\n                }\n                validatedCount++;\n            }\n        }\n        \n        // Second pass: Calculate score using only the latest validated document of each type\n        if (latestBankStatement != type(uint256).max) {\n            Document memory doc = userDocuments[user][latestBankStatement];\n            // Bank Statement: authenticity (100 fixed) + repaymentHistory% + currentBalance%\n            uint256 authenticityPoints = doc.documentAuthenticity ? 100 : 0;\n            uint256 repaymentPoints = doc.repaymentHistoryScore; // Already 0-100\n            uint256 balancePoints = _calculateBalancePercentage(doc.currentBalance);\n            totalScore += authenticityPoints + repaymentPoints + balancePoints;\n        }\n        \n        if (latestUtilityBill != type(uint256).max) {\n            Document memory doc = userDocuments[user][latestUtilityBill];\n            // Utility Bill: lastTotalUtilityBills% + authenticity (100 fixed)\n            uint256 authenticityPoints = doc.documentAuthenticity ? 100 : 0;\n            uint256 utilityPoints = _calculateUtilityPercentage(doc.lastTotalUtilityBills);\n            totalScore += authenticityPoints + utilityPoints;\n        }\n        \n        if (latestSalarySlip != type(uint256).max) {\n            Document memory doc = userDocuments[user][latestSalarySlip];\n            // Salary Slip: income% + employmentYears% + authenticity (100 fixed)\n            uint256 authenticityPoints = doc.documentAuthenticity ? 100 : 0;\n            uint256 incomePoints = _calculateIncomePercentage(doc.salary);\n            uint256 employmentPoints = _calculateEmploymentPercentage(doc.employmentYears);\n            totalScore += authenticityPoints + incomePoints + employmentPoints;\n        }\n        \n        // Only calculate credit score if user has both required documents validated\n        // Allow individual document validation without requiring both upfront\n        if (hasBankStatement && hasUtilityBill && validatedCount >= MIN_REQUIRED_DOCS) {\n            // Apply only maximum credit score limit (1000)\n            if (totalScore > MAX_CREDIT_SCORE) {\n                totalScore = MAX_CREDIT_SCORE;\n            }\n            \n            // Update user's credit score only when both required documents are validated\n            userCredits[user].creditScore = totalScore;\n        } else {\n            // If requirements not met, set credit score to 0\n            // This allows individual document validation without error\n            userCredits[user].creditScore = 0;\n        }\n        \n        // Always update validated document count\n        userCredits[user].validatedDocs = validatedCount;\n        \n        // Emit event with the actual credit score (may be 0 if requirements not met)\n        emit CreditScoreUpdated(user, userCredits[user].creditScore, validatedCount);\n    }\n    \n    /**\n     * @dev Calculate percentage-based points for current balance\n     * @param balance The current bank balance\n     * @return Points based on balance percentage (0-100 points)\n     * @notice Uses flexible percentage calculation for any random score\n     */\n    function _calculateBalancePercentage(uint256 balance) internal pure returns (uint256) {\n        // Cap at $100k for 100% score, then calculate percentage\n        if (balance >= 100000) return 100;\n        \n        // Calculate percentage: (balance / 100000) * 100\n        // This gives any number from 0-100 based on actual balance\n        return (balance * 100) / 100000;\n    }\n    \n    /**\n     * @dev Calculate percentage-based points for utility bills\n     * @param utilityAmount The total utility bills amount\n     * @return Points based on utility amount percentage (0-100 points)\n     * @notice Uses flexible percentage calculation for any random score\n     */\n    function _calculateUtilityPercentage(uint256 utilityAmount) internal pure returns (uint256) {\n        // Cap at $2000 for 100% score, then calculate percentage\n        if (utilityAmount >= 2000) return 100;\n        \n        // Calculate percentage: (utilityAmount / 2000) * 100\n        // This gives any number from 0-100 based on actual utility amount\n        return (utilityAmount * 100) / 2000;\n    }\n    \n    /**\n     * @dev Calculate percentage-based points for income\n     * @param income The annual income amount\n     * @return Points based on income percentage (0-100 points)\n     * @notice Uses flexible percentage calculation for any random score\n     */\n    function _calculateIncomePercentage(uint256 income) internal pure returns (uint256) {\n        // Cap at $100k for 100% score, then calculate percentage\n        if (income >= 100000) return 100;\n        \n        // Calculate percentage: (income / 100000) * 100\n        // This gives any number from 0-100 based on actual income\n        return (income * 100) / 100000;\n    }\n    \n    /**\n     * @dev Calculate percentage-based points for employment years\n     * @param employmentYears The years of employment\n     * @return Points based on employment percentage (0-100 points)\n     * @notice Uses flexible percentage calculation for any random score\n     */\n    function _calculateEmploymentPercentage(uint256 employmentYears) internal pure returns (uint256) {\n        // Cap at 10 years for 100% score, then calculate percentage\n        if (employmentYears >= 10) return 100;\n        \n        // Calculate percentage: (employmentYears / 10) * 100\n        // This gives any number from 0-100 based on actual years\n        return (employmentYears * 100) / 10;\n    }\n    \n    // ============ VIEW FUNCTIONS ============\n    \n    /**\n     * @dev Get the credit score of a user\n     * @param user The address of the user\n     * @return The user's current credit score (range: 0-1000)\n     */\n    function getCreditScore(address user) external view userExists(user) returns (uint256) {\n        return userCredits[user].creditScore;\n    }\n    \n    /**\n     * @dev Get user credit information (simplified version)\n     * @param user The address of the user\n     * @return creditScore The user's current credit score\n     * @return validatedDocs The number of validated documents\n     * @return isActive Whether the user account is active\n     */\n    function getUserCredit(address user) external view returns (\n        uint256 creditScore,\n        uint256 validatedDocs,\n        bool isActive\n    ) {\n        return (\n            userCredits[user].creditScore,\n            userCredits[user].validatedDocs,\n            userCredits[user].isActive\n        );\n    }\n    \n    /**\n     * @dev Get the number of validated documents for a user\n     * @param user The address of the user\n     * @return The number of validated documents\n     */\n    function getValidatedDocsCount(address user) external view userExists(user) returns (uint256) {\n        return userCredits[user].validatedDocs;\n    }\n    \n    /**\n     * @dev Get the total number of documents submitted by a user\n     * @param user The address of the user\n     * @return The total number of documents submitted\n     */\n    function getTotalDocsCount(address user) external view userExists(user) returns (uint256) {\n        return userDocuments[user].length;\n    }\n    \n    /**\n     * @dev Get basic information about a specific document\n     * @param user The address of the user\n     * @param docIndex The index of the document\n     * @return docHash The hash of the document\n     * @return docType The type of document (0=bank statement, 1=utility bill, 2=salary slip)\n     * @return isValidated Whether the document is validated\n     * @return submissionTime When the document was submitted\n     */\n    function getDocumentInfo(address user, uint256 docIndex) external view userExists(user) returns (\n        bytes32 docHash,\n        uint8 docType,\n        bool isValidated,\n        uint256 submissionTime\n    ) {\n        require(userDocuments[user].length > docIndex, \"Document index out of bounds\");\n        \n        Document memory doc = userDocuments[user][docIndex];\n        return (\n            doc.docHash,\n            uint8(doc.docType),\n            doc.isValidated,\n            doc.submissionTime\n        );\n    }\n    \n    /**\n     * @dev Get detailed parameters of a specific document\n     * @param user The address of the user\n     * @param docIndex The index of the document\n     * @return salary The salary/income amount\n     * @return employmentYears The years of employment\n     * @return repaymentHistoryScore The repayment history score\n     * @return currentBalance The current bank balance\n     * @return lastTotalUtilityBills The last total utility bills amount\n     * @return documentAuthenticity Whether the document is authentic\n     * @return validationTime When the document was validated (0 if not validated)\n     */\n    function getDocumentDetails(address user, uint256 docIndex) external view userExists(user) returns (\n        uint256 salary,\n        uint256 employmentYears,\n        uint256 repaymentHistoryScore,\n        uint256 currentBalance,\n        uint256 lastTotalUtilityBills,\n        bool documentAuthenticity,\n        uint256 validationTime\n    ) {\n        require(userDocuments[user].length > docIndex, \"Document index out of bounds\");\n        \n        Document memory doc = userDocuments[user][docIndex];\n        return (\n            doc.salary,\n            doc.employmentYears,\n            doc.repaymentHistoryScore,\n            doc.currentBalance,\n            doc.lastTotalUtilityBills,\n            doc.documentAuthenticity,\n            doc.validationTime\n        );\n    }\n    \n    /**\n     * @dev Get comprehensive credit information for a user\n     * @param user The address of the user\n     * @return creditScore The user's current credit score (range: 0-1000)\n     * @return validatedDocs The number of validated documents\n     * @return totalDocs The total number of documents submitted\n     * @return isActive Whether the user account is active\n     */\n    function getUserCreditInfo(address user) external view userExists(user) returns (\n        uint256 creditScore,\n        uint256 validatedDocs,\n        uint256 totalDocs,\n        bool isActive\n    ) {\n        return (\n            userCredits[user].creditScore,\n            userCredits[user].validatedDocs,\n            userDocuments[user].length,\n            userCredits[user].isActive\n        );\n    }\n    \n    /**\n     * @dev Get basic document information for a user (simplified to avoid stack too deep)\n     * @param user The address of the user\n     * @return docHashes Array of document hashes\n     * @return docTypes Array of document types\n     * @return isValidatedArray Array of validation statuses\n     * @return submissionTimes Array of submission times\n     */\n    function getUserDocuments(address user) external view returns (\n        bytes32[] memory docHashes,\n        uint8[] memory docTypes,\n        bool[] memory isValidatedArray,\n        uint256[] memory submissionTimes\n    ) {\n        uint256 docCount = userDocuments[user].length;\n        \n        docHashes = new bytes32[](docCount);\n        docTypes = new uint8[](docCount);\n        isValidatedArray = new bool[](docCount);\n        submissionTimes = new uint256[](docCount);\n        \n        for (uint256 i = 0; i < docCount; i++) {\n            docHashes[i] = userDocuments[user][i].docHash;\n            docTypes[i] = uint8(userDocuments[user][i].docType);\n            isValidatedArray[i] = userDocuments[user][i].isValidated;\n            submissionTimes[i] = userDocuments[user][i].submissionTime;\n        }\n    }\n    \n    /**\n     * @dev Get detailed document information for a user\n     * @param user The address of the user\n     * @return salaries Array of salary amounts\n     * @return employmentYears Array of employment years\n     * @return repaymentHistoryScores Array of repayment history scores\n     * @return currentBalances Array of current balances\n     * @return lastTotalUtilityBills Array of last total utility bills\n     * @return documentAuthenticities Array of document authenticity flags\n     * @return validationTimes Array of validation times\n     */\n    function getUserDocumentDetails(address user) external view returns (\n        uint256[] memory salaries,\n        uint256[] memory employmentYears,\n        uint256[] memory repaymentHistoryScores,\n        uint256[] memory currentBalances,\n        uint256[] memory lastTotalUtilityBills,\n        bool[] memory documentAuthenticities,\n        uint256[] memory validationTimes\n    ) {\n        uint256 docCount = userDocuments[user].length;\n        \n        salaries = new uint256[](docCount);\n        employmentYears = new uint256[](docCount);\n        repaymentHistoryScores = new uint256[](docCount);\n        currentBalances = new uint256[](docCount);\n        lastTotalUtilityBills = new uint256[](docCount);\n        documentAuthenticities = new bool[](docCount);\n        validationTimes = new uint256[](docCount);\n        \n        for (uint256 i = 0; i < docCount; i++) {\n            salaries[i] = userDocuments[user][i].salary;\n            employmentYears[i] = userDocuments[user][i].employmentYears;\n            repaymentHistoryScores[i] = userDocuments[user][i].repaymentHistoryScore;\n            currentBalances[i] = userDocuments[user][i].currentBalance;\n            lastTotalUtilityBills[i] = userDocuments[user][i].lastTotalUtilityBills;\n            documentAuthenticities[i] = userDocuments[user][i].documentAuthenticity;\n            validationTimes[i] = userDocuments[user][i].validationTime;\n        }\n    }\n    \n    /**\n     * @dev Get document count for a user\n     * @param user The address of the user\n     * @return The number of documents submitted by the user\n     */\n    function getUserDocumentCount(address user) external view returns (uint256) {\n        return userDocuments[user].length;\n    }\n    \n    /**\n     * @dev Get contract statistics\n     * @return users The total number of users in the system\n     * @return contractOwner The address of the contract owner/validator\n     */\n    function getContractStats() external view returns (uint256 users, address contractOwner) {\n        return (totalUsers, owner);\n    }\n    \n    /**\n     * @dev Get all pending documents from all users (only owner)\n     * @return users Array of user addresses who have pending documents\n     * @return docIndexes Array of document indexes for each user\n     * @return docHashes Array of document hashes\n     * @return docTypes Array of document types\n     * @return submissionTimes Array of submission times\n     * @notice This function helps validators see all pending documents at once\n     */\n    function getAllPendingDocuments() external view onlyOwner returns (\n        address[] memory users,\n        uint256[] memory docIndexes,\n        bytes32[] memory docHashes,\n        uint8[] memory docTypes,\n        uint256[] memory submissionTimes\n    ) {\n        // First pass: count total pending documents\n        uint256 totalPending = 0;\n        for (uint256 i = 0; i < totalUsers; i++) {\n            // Note: This is a simplified approach. In a real implementation,\n            // you'd need to maintain a list of all user addresses\n            // For now, we'll return empty arrays as this requires more complex tracking\n        }\n        \n        // Return empty arrays for now - this would need a more complex implementation\n        // to track all users and their documents efficiently\n        users = new address[](0);\n        docIndexes = new uint256[](0);\n        docHashes = new bytes32[](0);\n        docTypes = new uint8[](0);\n        submissionTimes = new uint256[](0);\n    }\n    \n    // ============ ADMIN FUNCTIONS ============\n    \n    /**\n     * @dev Deactivate a user account (only owner)\n     * @param user The address of the user to deactivate\n     */\n    function deactivateUser(address user) external onlyOwner userExists(user) {\n        userCredits[user].isActive = false;\n    }\n    \n    /**\n     * @dev Reactivate a user account (only owner)\n     * @param user The address of the user to reactivate\n     */\n    function reactivateUser(address user) external onlyOwner userExists(user) {\n        userCredits[user].isActive = true;\n    }\n}",
  "sourcePath": "/home/ec2-user/environment/Creditchain/contracts/dashboard.sol",
  "compiler": {
    "name": "solc",
    "version": "0.8.10+commit.fc410830.Emscripten.clang"
  },
  "schemaVersion": "3.4.16",
  "updatedAt": "2025-11-08T05:47:37.602Z",
  "networkType": "ethereum",
  "devdoc": {
    "details": "A credit scoring system based on document validation with weighted parameters",
    "events": {
      "CreditScoreUpdated(address,uint256,uint256)": {
        "details": "Emitted when a user's credit score is updated"
      },
      "DocumentSubmittedWithParams(address,bytes32,uint256,uint8,uint256,uint256,uint256,bool)": {
        "details": "Emitted when a user submits a document with parameters"
      },
      "DocumentValidated(address,uint256,bytes32)": {
        "details": "Emitted when the owner validates a document"
      }
    },
    "kind": "dev",
    "methods": {
      "calculateCreditScore(address)": {
        "details": "Calculate and update credit score for a user (only owner)",
        "params": {
          "user": "The address of the user whose credit score to calculate"
        }
      },
      "constructor": {
        "details": "Initialize the contract with the deployer as owner"
      },
      "deactivateUser(address)": {
        "details": "Deactivate a user account (only owner)",
        "params": {
          "user": "The address of the user to deactivate"
        }
      },
      "getAllPendingDocuments()": {
        "details": "Get all pending documents from all users (only owner)",
        "returns": {
          "docHashes": "Array of document hashes",
          "docIndexes": "Array of document indexes for each user",
          "docTypes": "Array of document types",
          "submissionTimes": "Array of submission times",
          "users": "Array of user addresses who have pending documents"
        }
      },
      "getContractStats()": {
        "details": "Get contract statistics",
        "returns": {
          "contractOwner": "The address of the contract owner/validator",
          "users": "The total number of users in the system"
        }
      },
      "getCreditScore(address)": {
        "details": "Get the credit score of a user",
        "params": {
          "user": "The address of the user"
        },
        "returns": {
          "_0": "The user's current credit score (range: 0-1000)"
        }
      },
      "getDocumentDetails(address,uint256)": {
        "details": "Get detailed parameters of a specific document",
        "params": {
          "docIndex": "The index of the document",
          "user": "The address of the user"
        },
        "returns": {
          "currentBalance": "The current bank balance",
          "documentAuthenticity": "Whether the document is authentic",
          "employmentYears": "The years of employment",
          "lastTotalUtilityBills": "The last total utility bills amount",
          "repaymentHistoryScore": "The repayment history score",
          "salary": "The salary/income amount",
          "validationTime": "When the document was validated (0 if not validated)"
        }
      },
      "getDocumentInfo(address,uint256)": {
        "details": "Get basic information about a specific document",
        "params": {
          "docIndex": "The index of the document",
          "user": "The address of the user"
        },
        "returns": {
          "docHash": "The hash of the document",
          "docType": "The type of document (0=bank statement, 1=utility bill, 2=salary slip)",
          "isValidated": "Whether the document is validated",
          "submissionTime": "When the document was submitted"
        }
      },
      "getTotalDocsCount(address)": {
        "details": "Get the total number of documents submitted by a user",
        "params": {
          "user": "The address of the user"
        },
        "returns": {
          "_0": "The total number of documents submitted"
        }
      },
      "getUserCredit(address)": {
        "details": "Get user credit information (simplified version)",
        "params": {
          "user": "The address of the user"
        },
        "returns": {
          "creditScore": "The user's current credit score",
          "isActive": "Whether the user account is active",
          "validatedDocs": "The number of validated documents"
        }
      },
      "getUserCreditInfo(address)": {
        "details": "Get comprehensive credit information for a user",
        "params": {
          "user": "The address of the user"
        },
        "returns": {
          "creditScore": "The user's current credit score (range: 0-1000)",
          "isActive": "Whether the user account is active",
          "totalDocs": "The total number of documents submitted",
          "validatedDocs": "The number of validated documents"
        }
      },
      "getUserDocumentCount(address)": {
        "details": "Get document count for a user",
        "params": {
          "user": "The address of the user"
        },
        "returns": {
          "_0": "The number of documents submitted by the user"
        }
      },
      "getUserDocumentDetails(address)": {
        "details": "Get detailed document information for a user",
        "params": {
          "user": "The address of the user"
        },
        "returns": {
          "currentBalances": "Array of current balances",
          "documentAuthenticities": "Array of document authenticity flags",
          "employmentYears": "Array of employment years",
          "lastTotalUtilityBills": "Array of last total utility bills",
          "repaymentHistoryScores": "Array of repayment history scores",
          "salaries": "Array of salary amounts",
          "validationTimes": "Array of validation times"
        }
      },
      "getUserDocuments(address)": {
        "details": "Get basic document information for a user (simplified to avoid stack too deep)",
        "params": {
          "user": "The address of the user"
        },
        "returns": {
          "docHashes": "Array of document hashes",
          "docTypes": "Array of document types",
          "isValidatedArray": "Array of validation statuses",
          "submissionTimes": "Array of submission times"
        }
      },
      "getValidatedDocsCount(address)": {
        "details": "Get the number of validated documents for a user",
        "params": {
          "user": "The address of the user"
        },
        "returns": {
          "_0": "The number of validated documents"
        }
      },
      "reactivateUser(address)": {
        "details": "Reactivate a user account (only owner)",
        "params": {
          "user": "The address of the user to reactivate"
        }
      },
      "submitDocumentWithParams(bytes32,uint8,uint256,uint256,uint256,uint256,uint256,bool)": {
        "details": "Submit a document hash with credit scoring parameters",
        "params": {
          "_currentBalance": "Current bank balance (for bank statements)",
          "_docHash": "The hash of the document to be submitted",
          "_docType": "Type of document (0=bank statement, 1=utility bill, 2=salary slip)",
          "_documentAuthenticity": "Whether the document is verified/authentic",
          "_employmentYears": "Years of employment",
          "_lastTotalUtilityBills": "Last total utility bills amount (for utility bills)",
          "_repaymentHistoryScore": "Repayment history score (0-100)",
          "_salary": "User's salary/income amount"
        }
      },
      "validateDocument(address,uint256)": {
        "details": "Validate a document for a specific user (only owner)",
        "params": {
          "docIndex": "The index of the document to validate in the user's documents array",
          "user": "The address of the user whose document to validate"
        }
      }
    },
    "title": "Parameterized Document Validation Credit Scoring System",
    "version": 1
  },
  "userdoc": {
    "kind": "user",
    "methods": {
      "calculateCreditScore(address)": {
        "notice": "Credit score calculated using weighted formula based on validated documentsFinal score is capped between 600-1000"
      },
      "getAllPendingDocuments()": {
        "notice": "This function helps validators see all pending documents at once"
      },
      "submitDocumentWithParams(bytes32,uint8,uint256,uint256,uint256,uint256,uint256,bool)": {
        "notice": "Users must submit at least 2 documents: bank statement + utility bill. Salary slips are optional."
      },
      "validateDocument(address,uint256)": {
        "notice": "Only the owner/validator can call this function to approve documents"
      }
    },
    "notice": "Users submit documents with parameters, validator approves them, credit score calculated using weighted formula",
    "version": 1
  }
}